:0200000407FCF7
:10000000D882FC07BD01FC07C501FC07DD01FC0728
:1000100000000000000000000000000000000000E0
:10002000000000000000000000000000F501FC07D7
:100030000000000000000000F701FC07F901FC07C8
:10004000B125FC07EB25FC07A526F0077D21FC0761
:10005000311FFC07FB01FC073919FC07FB01FC07FA
:10006000FB01FC07FB01FC07E714FC07EB14FC0792
:10007000EF14FC07F314FC07F714FC07FB01FC0763
:100080006D15FC07FB01FC07FB01FC07FB01FC07EE
:10009000FB01FC07FB01FC07FB01FC07FB01FC0764
:0800A000000000008E070E00B5
:0200000407FCF7
:100110000448854606F05EFF004800479103FC074F
:10012000C046C046D882FC0710B51F480189C908DF
:10013000C9000181018A1D4CC90713D0808800289D
:1001400010D11B481949428820310A8182888A804F
:10015000C2880A80618AFF22813200889143C001EF
:10016000014361821349062008800F2000F00EF839
:10017000012000F00BF8002000F008F8608904214D
:10018000884360810020208062B610BD002809DB12
:10019000C106C90E0120884007490860BFF34F8F90
:1001A000BFF36F8F70470000000300500000005045
:1001B000A000FC070034005080E100E00F488047B9
:1001C0000F48004704207146084203D0EFF309802E
:1001D0000C490847EFF308800A4908470420714694
:1001E000084203D0EFF3098007490847EFF308807E
:1001F00005490847FEE7FEE7FEE7FEE72901FC07A1
:100200001101FC07A502FC070D02FC0710B504460E
:1002100020484089C00508D51B2001F007F81D487B
:1002200060300188012211430180052212071088E5
:10023000518A0007800FFF2381339943C001014396
:10024000518215492068086060684860A06888602D
:10025000E068C8602069086160694861A0698861D8
:10026000E069C8610C620D48836A4B62C36A8B62A5
:10027000036BCB62C36B0B63436B4B63806B886315
:10028000074908200880908AC00601D500BE10BD2D
:10029000FEE70000200000500090FC0700ED00E0A9
:1002A0000033005070B5052504462D07288A042127
:1002B00008432882288940210843288124480126B0
:1002C000066024490820088023484089C00507D5D6
:1002D0001B2000F0ABFF20486030018831430180D3
:1002E0002888698A0007800FFF2281329143C0016C
:1002F0000143698219492068086160684861A06803
:100300008861E068C8612069086260694862A06924
:100310008862E069C8620C631148826A4A63C26AF3
:100320008A63026BCA63C26B0C4940310A60426B3C
:100330004A60806B8860A88AC00608D500BE688ABB
:10034000012180088000C9030843688270BDFEE770
:1003500080E200E000330050200000504090FC0795
:1003600000ED00E070B5094E0D46044611463046DA
:1003700001F03AFFAAB201232146304601F0A8FF5E
:1003800070BD10B5014801F0DBFF10BD0011005039
:1003900008B500F0C7F800F075FB05242407082510
:1003A000C826A84F0FE0012000F02EFA0020009090
:1003B000042168464DF7C2FB002801D000F0E7FA9F
:1003C00060F7AEFC0BE02089000608D5012080070D
:1003D000006B000403D49C480078C0070BD072B6B1
:1003E00002F098F9042810D0022815D0032813D061
:1003F000012821D021E05DF700F8002000F004FA88
:10040000924800780428DBD1CDE791480078012894
:1004100001D0032000E0022000F04EF8A08AC006C0
:1004200001D58C48058030BFA08AC00601D5894817
:10043000458000F005F800E030BF62B63E80C2E7BC
:1004400010B500F07FF9844902280CD1052000077F
:10045000408AC005820F814802800A8942808A88CA
:1004600082800A88C28048896021C00500280ADB92
:10047000794860300088C00705D0774A2032508A1A
:10048000884320305082764882888A432032828096
:100490007448C078002807D07348006801898AB280
:1004A000416803205CF70AF904F043FC6F480169D6
:1004B00004229143016110BD38B5694605240870D6
:1004C0002407218A054604221143218200F063F8A3
:1004D000614841896022C905002905DB5E4B203354
:1004E000598A9143403159825D498B889343403307
:1004F0008B80022D01D0032D13D18188490849003A
:100500008180002000900099491C00911429FADB99
:10051000618989088900491C618161894906FCD586
:10052000608038BDF0B55248524905230127524A30
:10053000884201D31C4604E0904201D33C4600E0CF
:1005400000244E4D4E4E4748AD194E4E8470AD19A5
:100550000126B6034560B54201D8142500E0002508
:100560002540494C45708C4213D2484B2546EB1828
:10057000944205D38B4201D211230AE03B4608E0A6
:10058000934201D2142304E08B4201D2102300E0F5
:1005900000230370F0BDF8B5022801D0032848D12C
:1005A000324A136904210B4313612D4A203A93897F
:1005B0005B085B009381052410222A4E2407022841
:1005C0007578608A36D010436082608A0843608202
:1005D0007068C01C870801F019FD608A102108436B
:1005E00060822B487F1E0762EFF31080012181F3A8
:1005F00010882188802291432180002800D001208A
:1006000080F3108814484089C0050AD501F0ECFC3D
:100610000B2000F00BFE10486030018801221143CE
:10062000018003205CF770F8002806D00120F070EC
:100630002583F8BD90436082F3E70020F0703078A6
:100640000540F5E70031005054BAFC078488FC07E8
:10065000B4BAFC070033005020000050A000FC0793
:10066000200300503087FC0758B9FC0700ED00E07C
:100670002887FC070070FC070040FC071001FC07FE
:1006800088790000000004F8D882FC070C04000000
:100690000000F407704770B50D46002442F72FF9AB
:1006A0002855641CE4B2202CF8D3002070BD10B58E
:1006B0005EF710FD10BD10B55EF715FD10BD70475B
:1006C000704770470649884200D000BE05210907DF
:1006D000488A012280088000D20310434882704774
:1006E0001111111144480178002902D08021417074
:1006F00070474249002008704149C87070473E4920
:100700000A78002A03D000280CD002200BE0002831
:1007100001D0022000E0012038490870384901204A
:10072000C87070470120803048707047002805D09D
:10073000012804D0022804D10120E0E7D2E70020FC
:10074000FBE770472D4900200978002904D00129D2
:1007500003D0022900D102207047012070472648AB
:100760008178002904D0491E0906090E817019D12B
:1007700042780021002A04D09207920F0270417043
:1007800004E00278002A01D0521E02701206120EF6
:10079000017007D0012A03D0022A03D10120AEE75D
:1007A0000020FCE7704700B5134A9078401C907019
:1007B0001078002805D1FFF7C5FF431CFFF792FF13
:1007C000137000BD0C48C07870470020EFF3108113
:1007D000012282F31088052212071289120605D41D
:1007E0000848028901231A4302811846002900D0D3
:1007F000012181F3108870473887FC07B4BAFC07E1
:1008000054BAFC070033005010B5FE4CA178002903
:1008100021D0FD49002803D008884007FCD402E01D
:100820000888400717D4CA88888811040A1800204D
:10083000A070F64800235043800B401C4008E06144
:100840001F204006492162F70BFEE162A06264218D
:100850004843000CA06110BDEB4948800888032282
:10086000104308800888042210430880E5490120CD
:100870008870704770B505200007018930229143C8
:1008800001810189802211430181018908221143DC
:100890000181DF490A88520852000A8043891822E0
:1008A00093434381048940231C430481048A042523
:1008B000AC430482848AA407FCD5D24DAA246C617F
:1008C000CD8801240F263602B5430B263602AD191A
:1008D000CD80CD882543CD8044899443083444811C
:1008E0004A88520852004A800189994301810120B7
:1008F00080070168821591430160C64801683F2264
:1009000052029143421489180160016802031143A5
:10091000016070BD10B5BB490122D203C969904284
:1009200005D306F069FB8905800A084310BD4843DA
:10093000800A10BDEEE710B5B24989694843B6494F
:10094000401849005EF75EFB10BDF4E770B500F09B
:10095000F6FB0446FFF7F9FFAA4D288120463C30FC
:10096000FFF7F3FFAD49001D88602A891018C01DEC
:10097000AB4A48601278022A01D111304860FFF773
:10098000D9FFA849401880B25CF7C8FD70BDF0B52A
:10099000A54985B00120C863C86B0028FCD101209F
:1009A0008007C069974C2169884201D200212161EA
:1009B0001922411AD20191422AD320619B48018811
:1009C0000391418802918788C688994903C900909C
:1009D0000191684600F0F3FE00F0C9FF05460120D2
:1009E00020567F280CD0281A40B2002801DA404255
:1009F00040B2082805DBE068401CE06002F047F8E0
:100A000065708A48029941808780C6800399018079
:100A100005B0F0BD0020704710B586490020086081
:100A2000FFF794FF01208007016B4900490801632B
:100A300010BD08B57349888075498A8852085200EC
:100A40008A80002200920099491C00911429FADB47
:100A5000052109074B899B089B005B1C4B814B8937
:100A60005B06FCD54880E120C0000092521C009239
:100A70008242FBDB48898008800048814889000663
:100A8000FCD508BDF8B56C48C82101800021418023
:100A90006A480824448000F00FFC694DA988684624
:100AA00001800088C046C0466846008804239843F9
:100AB0003ED00020A8806248203001880F22920298
:100AC00011430180524E2036718A21437182504970
:100AD00060310A880625AA430A800588CA011543A1
:100AE0000580758A95437582B28A0E25AA43921DA8
:100AF000B282474A5589534FED050D881DD5BD4338
:100B00005701ED190D800D880F022D052D0DED19E2
:100B10000D8005882543058005889D4305800D8847
:100B20006D086D000D8001884025A943018020E0FB
:100B3000288A400840002882BDE7BD4303277F0282
:100B4000ED190D800D880F273F033D430D8005886B
:100B5000A543058005889D430580B58A03277F024C
:100B6000BD43B5820D8801273D430D80518949075A
:100B7000FCD50188032529430180718A6025A9439A
:100B8000203171828188A9432031818001201D4E4E
:100B9000052530702D07E88AC02188438030E8821F
:100BA000108A000A00021082108B1C218843083032
:100BB000108325480380A8880121C9028843A880A2
:100BC00048012249086001F021FA022001F0E3F90E
:100BD0001F4F3869C0B2AA2875D0012029880C227D
:100BE0009143800001432980C046C046054820301B
:100BF00000F0CEFA00F02AF900F09EFA002864D046
:100C000028E000004087FC07001600501111010089
:100C1000200000500002004020A10700987BFC0744
:100C2000B4BAFC07E2040000C00000400015005008
:100C3000EC72FC07A8B9FC070031005000330050EB
:100C400000030050000F00000002005080E200E0AE
:100C5000C07FF80700F070FAFFF7EBFE7F2070709E
:100C6000B86A1E49086001F001FA00F041F804F08A
:100C700060F8012041F749FEFFF7FCFD18480068C5
:100C800041F7E8FA17490020C87008710120800771
:100C9000016882151143016001F0FCFB1E20FFF783
:100CA000DBFD0120FFF7B0FDFFF71CFD02F05CFC4F
:100CB00005F0E6FAFFF7B0FE0B49C82008800B48A4
:100CC0004480F8BDFFE7032088E73869C0B2AA284E
:100CD00001D06E20C0E78020BEE70000987BFC07B3
:100CE0004CB9FC0754BAFC070031005000330050E7
:100CF00070B53548334D006834492C6892B088424D
:100D000005D005225202324932485EF7F5F9324EDB
:100D1000324930465EF709FA0721314809025EF789
:100D200004FA2C6006F03EF92F492E4808602F483F
:100D30000024048030222E492E485EF7DDF929492F
:100D40000822083903C91191109010A92A485EF7AA
:100D5000D3F924494022283168465EF7CDF9402274
:100D6000694626485EF7C8F9254827490470254892
:100D70000860274925480860274926480860274910
:100D80000A20087026482749047032200870264936
:100D900005200860254A0121116025490860254980
:100DA00006200860244907200860244908200860BC
:100DB000FF20234907300860224908602248066066
:100DC00012B070BD5CBAFC079CB8FC076587341292
:100DD00000B0FC075C8EFC0700A0FC07AC14000010
:100DE00000B9FC07FC72FC0760BAFC077087FC07BF
:100DF0007CFCF10700BAFC07DAB9FC07B0BCFC07C1
:100E0000FDB9FC07603FF20750B9FC078470FC078E
:100E100054B9FC070072FC0758B9FC07B0B9FC07CD
:100E2000B1B9FC07D9B9FC075CB9FC0760B9FC078C
:100E300064B9FC0768B9FC076CB9FC0770B9FC071A
:100E400048B9FC0744B9FC074CB9FC07F0B5C44CE1
:100E500089B000202076607603900120C046C0460D
:100E6000C0480169C048814202D0C01709B0F0BD36
:100E7000BC4F0425403FE819016D0191090F092974
:100E800010D001220198920790427AD3B74A90423B
:100E900077D8B7490835884274D1E819C16CB5488C
:100EA0004180A6E0019A01991204C9B2160E1129D7
:100EB00035D007DC0B005EF773F908747474747432
:100EC000740D1F7412390B005EF76AF9063A4B5D18
:100ED0006B60656B207EB200C100A14840380818E5
:100EE000A049143169185EF707F9207E8019C0B255
:100EF0002076042854D854E0607EB200C10098489F
:100F00004038081897491030143169185EF7F4F822
:100F1000607E8019C0B260760C2841D841E0416DF6
:100F200089B20291406D000C01460490029800F0D5
:100F300009F9A0800499029800F00CF9E08030E0F3
:100F4000416D89B20491406D000C014602900498F5
:100F500000F0F8F820810299049800F0FBF8608115
:100F60001FE0039805A9800040187E49B2001431A3
:100F700069185EF7C1F803988019039002280FD80A
:100F80000FE02BE010E0406D60820AE0416D744894
:100F90004038016405E0406D0004000CA08200D1DF
:100FA00000BEB00045194DE071492639884203D191
:100FB000E819C06CE0821CE06D49091F884204D129
:100FC000E819C06C6B49888013E069490839884288
:100FD0000FD1E819C06C6749C8800AE007292ED0F4
:100FE00008292FD00A292DD006292BD0401C07D044
:100FF00000BE5C48103029185F48814200D23AE7B1
:101000000598A0810698050C86B22946304600F066
:1010100099F8E0812946304600F09CF82082207E35
:10102000C10700D000BE40082076607EC10700D016
:1010300000BE40086076A18A002905D007E00020A4
:10104000C046C0462D1DD4E77D21C900A1820428D9
:1010500000D000BE002009E7F8B5414C0025403C17
:101060003F4F24E0EE00A059444988421AD130197C
:1010700000904068800A400414D001F0EDFF092878
:1010800010D900980322406812020146090410405A
:10109000890E0843A1590860009839494068C00189
:1010A000C00D02E030194068A15908606D1C387EFF
:1010B000A842D7DCF8BDF8B5294C0025403C2746AE
:1010C000403717E0E80006192E48316981420DD1FA
:1010D00001F0C2FF092809D92B4970690840284945
:1010E0000988490408433169086002E03069716980
:1010F00001606D1C787EA842E4DCF8BD184904202C
:10110000085E704716490620085E7047144908209B
:10111000085E704712490A20085E704710488089AF
:1011200070470F490E20085E70470D491020085E79
:1011300070470B48408A70470948C08A7047084882
:10114000808A7047081A0104890C40180F4940181A
:1011500000B27047C2008018401A0004C0147047E3
:10116000B487FC07C07EF807A5A5A5A54C42005092
:1011700028000050A000FC07C07FF8074C1000407A
:10118000A47BFC0738300040FFFF01FC0100FFFF9B
:1011900010B5062201495DF7AFFF10BDD47FF807F7
:1011A00005200007018830221143018001880322B5
:1011B00011430180704705200007018830229143C8
:1011C00001800188890889000180704736490A8BAF
:1011D00003231B029A43000202430A8370473349E8
:1011E0008A8A03235B029A43C3085B021A438A82FA
:1011F0008A8A0723DB0240079A43800C02438A82D3
:101200002A484030018801221143018027482038B4
:1012100041894907FCD570472448818A808A49055D
:10122000890F8004400FC900081870471F498A8A37
:1012300003235B029A43C3085B021A438A828A8AA9
:101240000723DB0240079A43800C02438A827047DF
:1012500010B50446154820384089C00502D4012045
:10126000C04310BD00F0BDFE002806D0FFF7D4FF3C
:10127000A04202D90020C04310BD0C48408AC004DF
:1012800008D40B480088000704D4082C02D204209C
:10129000C04310BD07480121047041702046FFF78C
:1012A0009EFF002010BD0000203000504000005084
:1012B00020030050A87BFC07F0B585B00026974CB2
:1012C000029602983021484300960019009989003F
:1012D00046500099491C00910C29F7DB0298401CEC
:1012E00002900128EDDB03F01DFC8C4D0021083D30
:1012F00029606960012702960020009002998848C1
:101300004900465A00993846884080B206421DD0AE
:101310000298302148430099001989004058411C27
:101320001BD000280DD0C117009A5DF729FF029A43
:1013300012015DF725FF2A686B6810431943286086
:1013400069600098401C00900C28DBDB0298401C70
:1013500002900128D0DB05B0F0BD00BEE3E7F8B590
:10136000164605460C460A461F46012000215DF739
:1013700007FF2A015DF704FF684B083B1A685B68AA
:1013800010401940084300D100BE6801654940186B
:10139000610008183E43C680F8BD70B505460C468E
:1013A0000A46012000215DF7EBFE2A015DF7E8FE09
:1013B0005A4A083A1368526818401140084300D14D
:1013C00000BE6801574940180121A140818070BDCD
:1013D00070B505460C460A46012000215DF7D0FE97
:1013E0002A015DF7CDFE4D4A083A1368526818404D
:1013F0001140084300D100BE68014A49401801214C
:10140000A140418070BDFFB581B00C4605460A463B
:101410001F46012000210A9E5DF7B2FE2A015DF7FA
:10142000AFFE3E4B083B1A685B681040194008430A
:1014300000D100BE002E2146284602D0FFF7C8FF8B
:1014400001E0FFF7AAFF3B4621462846039AFFF733
:1014500086FF80E770B505460C460A46012000214C
:101460005DF78EFE2A015DF78BFE2C4A083A136861
:10147000526818401140084300D100BE6801294954
:10148000401800880121A140084000D0012070BD13
:1014900070B5012421460A3881400D4688B200F01B
:1014A0002CF884402048C189A9430C43C48170BDF5
:1014B00010B504460A3804280BD82046FFF7E8FF89
:1014C0001649A000303140188038806D002801D0C6
:1014D000804710BD002CFCDBE106C90E01208840CE
:1014E0001249086010BD0A20E2E70B20E0E70C205B
:1014F000DEE70D20DCE70E20DAE700280BD0411EE6
:101500004840C003010C002002E04908401C80B2A2
:101510000029FAD17047102070470000D887FC07D7
:101520006473FC07003000500014005080E200E0BB
:101530008307FF22DB0E9A408907090E9940002895
:1015400008DB830845489B001B1818689043084334
:10155000186070470007000F0838830840489B0058
:101560001B18D86990430843D861704710B5FFF73E
:1015700022FE0522120790883A49000504D53A4B0D
:101580001C880520A04311D09088C30637481FD57A
:101590008388DB071CD003881B0619D501228280B3
:1015A000028880239A430280486822E01888042237
:1015B0001043188018884008400018800C68002CE0
:1015C00005D00220185E995E0A229A5EA04710BDDF
:1015D0009288D206FBD582889207F8D50288D20578
:1015E000F5D5022282800288FF2301339A430280CC
:1015F00088680028EBD0804710BD70B5052424070B
:10160000A58810263543A580002A00D100BE0425F8
:10161000164CA58025889B06AD09AD019B0E1D4388
:101620002580A181521ED1B2618021888022114380
:101630002180208102211020FFF77AFF102000F086
:1016400004F870BD074948607047002805DBC106F3
:10165000C90E0120884006490860704700E400E098
:1016600000ED00E01C88FC07000200500001005063
:1016700000E100E0EF48018801221203914301805C
:101680007047EC4801880122120311430180642055
:1016900000BF401EFCD17047E649CA88D208D2007C
:1016A0000243CA807047E349CA8870239A43000105
:1016B0000243CA807047F8B5050049D0DD4C29784F
:1016C0002088402290438901084320806878FFF7F2
:1016D000EAFF2878002803D168780009FFF7DCFFCB
:1016E000E87804260128208833D0B0432080287968
:1016F000A1880002C9B20143A180E0880127400609
:10170000400F7F02042826D0FFF7B4FFA8780F28E7
:1017100000D900BE61880F2252029143400201436A
:101720006180687961888908890001436180A879AE
:10173000012820883BD0B8432080E879072800D9C9
:1017400000BE6188FF22C132914380010143618064
:10175000F8BD3043CAE7FFF7ECFCB7490028088022
:1017600001D1B6480880FFF78CFF208838432080DD
:10177000218840208143014321806088304360807C
:101780006088C004C00C608060880F2149028843D3
:10179000084360806088FF21C1318843FF21813187
:1017A000084360806088800880006080F8BD38430E
:1017B000C2E7A0480188012211430180704770B53B
:1017C00005469C4C002020802120000160804020A4
:1017D000A080FFF7A3FCA081A18970208143403144
:1017E000A181062000F0E3F82846FFF764FFFFF729
:1017F000E0FF70BD8F4801884908490001807047AB
:101800008C480188022211430180704700B5FFF720
:10181000F7FF884801888907C90FFBD10121C181E1
:10182000008A00BDF8B5834C05466088000700D5E6
:1018300000BE2088009067880020FFF7C0FF608806
:1018400004210843608060880F21490201238843F6
:101850005B02184360802088984320806188FF20C5
:10186000C130814301436180208840218843A90120
:10187000084320802089800A8002184320816089E3
:10188000800A8002184360812088802108432080DC
:101890002188581081432180FFF7B8FF8009FF3865
:1018A000FF38023886B22088FF21013108432080AA
:1018B000FFF7ACFF8009FF38FF38023880B2012DF6
:1018C00023D0991B012589B2AD02A94200D300BEE5
:1018D0002289920A92020A432281181A80B2A842EF
:1018E00000D300BE6189890A890201436181218890
:1018F000FF20013081432180FFF788FF8009984253
:1019000012D9FF38FF3802380FE07100591A01254B
:1019100089B2AD02A94200D300BE2289920A920286
:101920000A4322814000D8E7181A082800D300BED5
:10193000009820806780F8BD3E490120C88140485A
:101940000068002800D00047704710B500F03CF850
:1019500038494A88D205520F062A01D9062102E0E9
:101960004988C905490F0622511AC84010BD10B553
:10197000FFF746FF2F4801888907C90FFBD10121D6
:10198000C181008A2C4A2F491288801A7D22D200F8
:101990005043002801DD4A1002E0002801DA2A4AFB
:1019A00080185DF745FB8011193040B210BD00284A
:1019B00009DBC106C90E0120884024490860BFF335
:1019C0004F8FBFF36F8F7047F8B5054619484188B0
:1019D000090705D5FFF7A5FB0646FFF7A6FB0FE0B5
:1019E00000888009C007C00F05D0FFF787FB0646B7
:1019F000FFF788FB04E0FFF789FB0646FFF78AFB49
:101A000004462804401B124D71190E465DF7FAFA80
:101A100007462004001B31465DF70AFB391A6800AF
:101A2000814201D90020F8BD28468142FBD888B206
:101A3000F8BD000000150050AA7BFC0740760000AE
:101A40002888FC07AA0500002BFDFFFF80E100E0CD
:101A5000FFFF000010B57D2212027D4C904201D1A3
:101A60007F2005E0410010465DF7CCFA401EC0B271
:101A70002189C909C9010143218110BDEFF31080FB
:101A8000012181F31088052109078A8801239B021F
:101A90001A438A80002800D0012080F31088704704
:101AA000EFF31080012181F31088052109078A884E
:101AB00001239B029A438A80002800D0012080F3F2
:101AC0001088704762498A889208920002438A808F
:101AD000704730B501245E497C235E4A002803D05C
:101AE000012807D002280BD08D889D431C358D809E
:101AF00014740AE08C889C433C348C80022103E0FF
:101B00008C881C438C80042111741178E123000718
:101B10001940C00E0143117030BD70B50446FFF787
:101B2000ADFF4B4D2020288020794007400FFFF764
:101B3000D0FF20780007400FFFF7C4FF2078C107CF
:101B4000A88880229043090E0843A8804149237841
:101B50000878DB0740084000DB0F184308700023BB
:101B6000AB812B8913432B812278D20712D12279A2
:101B7000C0069206520FC00E5201104308706088D2
:101B8000FFF768FFE079C107288840229043490E9B
:101B9000084328802888202188432880002070BDA1
:101BA0002B4908882022904308802A482849007839
:101BB00040092031888070472549002020318880E5
:101BC000234908882022904310430880704770B54D
:101BD0001F4900230A88520952010A800A880224F8
:101BE000A24322430A800A880424A24322430A8093
:101BF0000C880122944314430C80164A1278D506AF
:101C0000134A2C0F2032022C01D3060C16811080AF
:101C1000088B000BC007C00FFAD1012C01D9108925
:101C20000304280F888B04D0C0180A8BD20BFCD178
:101C300070BDC0B2F9E700B50346FFF7B1FF184623
:101C4000FFF7C5FF0346FFF7B7FF184600BD0000CA
:101C5000001200502C88FC0710B50120FFF739FF57
:101C600005200002FFF7E7FF80B210BD10B5FFF7B7
:101C7000F3FFC00701D00D20C04310BD70B5002494
:101C8000A84DFFF7E9FFC00704D0641CAC42F8D3AD
:101C90000020C04370BD0DC8A3490DC1704700208E
:101CA000704710B5FFF77CFFFFF786FF0020FFF7B6
:101CB00010FFAB20FFF7BFFF002010BD10B504469A
:101CC000FFF7D4FF00281ED1FFF703FFFFF768FFDF
:101CD0009F20FFF77CFF0020FFF779FF0006000A36
:101CE00020600020FFF773FF00062168000C084306
:101CF00020600020FFF76BFF2168C0B2084320601E
:101D0000FFF75AFF002010BD70B5A2B0064684222E
:101D1000864901A85DF7F0F96846FFF7CFFF002874
:101D200015D10098002814D0411C12D00B2100249A
:101D300001AD0C2262435219526882420CD10C2030
:101D400044436019FFF7A7FF285D3070002022B0E0
:101D500070BD0A20C043FAE7641CE4B28C42E8D3A9
:101D60000920C043F3E710B5FFF780FF002805D135
:101D7000FFF7AFFEB920FFF75EFF002010BD10B5E2
:101D80000446FFF773FF00280DD1FFF7A2FE20469F
:101D9000FFF751FFFFF772FF002804D1FFF75CFF48
:101DA000800701D5002010BD0B20C04310BD70B5C9
:101DB0000C460546FFF75AFF00280DD10620FFF715
:101DC000DEFF002808D10220FFF783FE200628430B
:101DD000FFF731FFFFF752FF70BD70B50C460546A7
:101DE000FFF744FF00280CD10620FFF7C8FF0028AA
:101DF00007D10220FFF76DFE20062843FFF71BFFE7
:101E0000002070BD70B514460E460546FFF72EFF44
:101E1000002824D10620FFF7B2FF00281FD1FF20A1
:101E20000130844200D904460220FFF752FEFFF73A
:101E3000B7FE0121304649060843FFF7C8FE0020DF
:101E4000FFF747FE05E028786D1CFFF7C0FE641E13
:101E5000A4B2002CF7D1FFF7AFFEFFF70FFF70BD64
:101E6000FFB583B0002001900E460091FF20014392
:101E700015460C460020FFF72CFE2B488068801B7F
:101E8000A84200D205462E46002715E0009880198A
:101E9000A04202D90098261A761C0398B2B2C01943
:101EA0000099FFF7AFFF019000280AD1601CBF190D
:101EB000EE1BFF3401340090AF42E7D30698076071
:101EC000019807B0F0BDF8B51D4617460C4606460A
:101ED000FFF7CCFE002824D11348391980688142CD
:101EE00002D9001B286000E02F600220FFF7F1FDFF
:101EF000FFF756FE0321204609060843FFF767FE59
:101F00000020FFF7E6FD002405E00020FFF75FFE5C
:101F10003070641C761C2868A042F6D8FFF74CFE8F
:101F20000020F8BD80841E00AC7BFC076873FC07B2
:101F300010B50A4880890A49C96A002901D0884732
:101F400010BD042000F001F810BD002805DBC1061B
:101F5000C90E0120884003490860704720130050D3
:101F6000B87BFC0780E200E010B50446FFF754F9A7
:101F7000A04202D22046FFF759F958480188C90704
:101F800008D10188012211430180544860384189F9
:101F90004907FCD510BD38B5514C054620684107AE
:101FA000490F684601700078854219D04B48603867
:101FB0004089C0050CD5A81E03005DF7F1F80504A3
:101FC0000604040409000B2000E01320FFF7CCFFF7
:101FD0002068C008C0002843206060684007FCD526
:101FE00038BD4048007870473E490020087070476F
:101FF000052109070988090600D400BE80003A4976
:1020000009583748016139494161704710B5EFF30C
:102010001084012080F31088304860384089C00562
:102020000BD5304901200870FFF7F6F830490870E9
:102030002A480088C007C00F4870052000070188A3
:1020400080221143018026480168C908C900016047
:1020500041684907FCD50320FFF7CAFF002C03D0D5
:10206000012080F3108810BD0020FAE770B5EFF36F
:102070001084012080F31088052109070888802238
:102080001043088016480368DB08DB0003604368E0
:102090005B07FCD5174B0361144B436108889043E1
:1020A00008800E4860384089C0050ED50D490020D3
:1020B0000F4D08702878FFF7B9F86878002804D128
:1020C00006480188490849000180002C03D00120FE
:1020D00080F3108870BD0020FAE7000080000050F7
:1020E0000000F4074088FC07EC73FC07090404A413
:1020F000A87BFC070F0099098307FF22DB0E9A409B
:102100008907090E9940002808DB8308DB489B00FB
:102110001B18186890430843186070470007000FA9
:1021200008388308D6489B001B18D8699043084399
:10213000D8617047D34930B4884201D0012100E012
:102140000021D14A4901891808E0838ADB07DB0FA7
:1021500012D00388541C8D68CC81AB54CA898B89FA
:102160009A42F2D382885208520082808A69002AF9
:1021700002D0C88930BC104730BC704710B5C34886
:1021800000F0FBF810BDEFF31081012282F31088FC
:10219000BC4B052212079842908801D1802300E0B1
:1021A000402318439080002903D0012080F3108839
:1021B00070470020FAE710B502464032938FDB07E4
:1021C000DB0FFBD183898022934313438381CCB2FD
:1021D000C0231C520B041B0E03800902090E8180D0
:1021E00081899143818110BDA64A904201D001208E
:1021F00000E00020A44A4001801841617047F0B51A
:10220000A04F0D460446B84201D0012000E0002056
:102210009D49400146182046FFF7B5FF7C20005B32
:1022200028680102090A2046FFF7C5FFE978C806B9
:102230008A06800FD20FC000920049071043490F51
:102240000843A081E878C109204680300183E978FD
:10225000CA091AD0BC4210D14906CA0F218A2023CC
:102260009943520111432182E9784906CA0F218A14
:102270000223994352001143218229790907890FCA
:10228000818329798907890F0184287A3077E86862
:102290003061286970616869B06128790007800F32
:1022A0007077F0BD828A5209D207D20FFAD001802E
:1022B000704730B513460C46054606E0217828469F
:1022C000641CFFF7EFFF5B1E9BB2002BF6D130BD05
:1022D00070B56C4D0446A84201D0012000E00020FA
:1022E000694E400186190020F080B280002B06D094
:1022F000012B07D13160AC4205D1022004E0204619
:10230000FFF7D7FF70BD032000F029F8A088022155
:1023100088430843A080A088802188430843A08088
:10232000317FAC4201D1022000E00320FFF7E4FE40
:10233000AC4201D1022000E0032000F007F870BD9C
:10234000818A8909C907C90FFAD07047002805DBBF
:10235000C106C90E012088404D4908607047002819
:102360000ADBC106C90E0120884049498031086056
:10237000BFF34F8FBFF36F8F7047F8B5414D424E9B
:10238000044620890007000F062826D009DC012812
:1023900040D002281DD00428F3D12046FFF7CAFE02
:1023A000EFE7072828D00C28EBD1AC4201D0012060
:1023B00000E00020400187192046FFF7BBFEA188FE
:1023C00049084900A180B9690029DAD0F88988470D
:1023D000D7E7204600F01FF8D3E72046AC4201D0F3
:1023E000012100E00021490189190A69002AC8D0A9
:1023F000818A9E2319400BE02046AC4201D0012186
:1024000000E00021490189190A69002AB9D0012197
:102410009047B6E7F8BD1B4930B4884201D001218E
:1024200000E00021184A490189180EE003891B06C3
:102430009B0F032B1BD0838A9B06DB0F002B1BD02B
:10244000531C0C68CB80A25C0280CA888B889A429D
:10245000ECD3828802239A438280828880239A4325
:1024600082804A69002A07D0888830BC10477C23C4
:102470001B5A9B07DB0FE1E77EE6000000E400E06B
:1024800000ED00E0001000504488FC0700110050EF
:1024900000E100E0F8B51D481B4D0068A84231D0AE
:1024A000FF26C136012130465AF796F904461848EE
:1024B000016818480A0A017042700A0C8270090EFD
:1024C000C1700022A35CFF21C0319F07891ABF0F92
:1024D000615CC75D79405940A154521CB242F1D3AE
:1024E0000C481C222146001D5EF79AFD002800D0F2
:1024F00000BE20465AF7EBF90648406840F705FA57
:1025000002480560F8BD0000658734129CB8FC07DE
:10251000987BFC07E87BFC07F8B50125AD07AC6BA1
:102520002046FEF707FA6949694F4A688618002075
:102530004860394630465CF765FD664948603A4672
:102540005043301A00D0381A80B20860286B082136
:102550008843084328636048046060480068002896
:1025600002D0A04200D200BEF8BD10B5FEF723FE97
:10257000052000074189890703D04189890889001E
:1025800041810189802211430181018A0422914302
:102590000182818A8907FCD500F0B4F80120800708
:1025A0000169490700D500BE01694907FCD510BD86
:1025B00010B5FEF7F5FD4A4801894907FCD4FEF73E
:1025C000FAFD484805210088090748804648474CDD
:1025D0000088801E608007202080FEF7E1FD2088B3
:1025E0004007FCD4FFF7C1FF10BDF8B540480168B3
:1025F000C90703D001680222114301600168490242
:1026000004D50168012292051143016001272F4E74
:10261000BD072C69002C57D0200606D58020A86164
:102620004BF735F91E20FEF717F9A00703D5022056
:10263000A86147F72AF820070AD50820A86104F006
:102640005EFC002046F7DAFF0420307000F0FBFC4F
:10265000E00505D5FF200130A861012046F7CEFF37
:10266000A00504D501204002A8614BF779F9600666
:1026700003D54020A86146F7BCFFE00603D5102033
:10268000A86145F779FB60070FD50420A8611448BD
:1026900001894908490001815AF716FF3FF7D0FF29
:1026A0001E20FEF7D9F800203070E00706D0012088
:1026B000A8615AF725FF4BF7EAF83770A006A8D5AE
:1026C0002020A86100BEA4E7F8BD00008488FC07B4
:1026D00071020000400000409488FC078C88FC07D1
:1026E000003300504487FC074887FC070016005061
:1026F0000002004010B53FF7E8FD67488068674971
:10270000486010BD10B53FF70CFE64486249406850
:10271000886010BDF8B5002500F0B9F800270090DA
:10272000FEF750F801465E4E0020002902D13179B3
:10273000022900D100905B490989C9070DD159F7D9
:1027400028FF002809D0F0780125002805D00520B1
:102750000007808AC00701D0042596E03088002851
:102760007DD1FEF72FF8002806D14F48806A002857
:1027700002D000F08CF80090FEF7E8F8B1786846D7
:102780005AF7FFFC00286AD00124A40720694006FC
:102790007BD44348817868464BF7D0F9002874D041
:1027A0000120FEF713FD0099002906D0206AFF38AA
:1027B0003938DA2801D8491E00913C4802883C4843
:1027C000016850183B4A1060E26B920A92020A4379
:1027D000E263E16B384A1140384A1668B20211438D
:1027E000E163E16BC902C90A40050143E163344A70
:1027F000009804250021904200D300BE314B0CCB41
:102800005CF72AFC0903000D0843244A401E711C92
:102810001060884200D1166021480079002801D05C
:10282000012100E00021106847F79EF82648C06AA1
:102830008047FEF7EFF8002802D0FEF7B1FC012731
:10284000154E206B0004C00FFBD03068C005FCD5CE
:1028500030688024A0433060002F03D000E014E0F3
:10286000FEF7A9FC0F494889462804D24622174B97
:10287000101A18604A81FFF73DFF30680006FCD54A
:10288000052000070189A14301812846F8BD1048B1
:102890000068806A70470000000200408C88FC07D6
:1028A00054BAFC070033005074BEFC074887FC078D
:1028B000A07BFC07FC7BFC07FF03E0FF9C7BFC0785
:1028C00040420F006887FC0758BFFC078888FC0758
:1028D00058B9FC07002070477047704710B528288A
:1028E00001D2282002E0E62800D9E620FF21F331BA
:1028F00048437D21C9005CF785FB8130C0B210BD23
:102900007047704710B5022902D0012900D000BEDF
:10291000002802D0FF2802D000BE022902D000F019
:102920009BFB10BD0C2010BD01218907086B0722FD
:10293000104308638C48016802139143016070479B
:1029400010B50220FEF742FC87480168020391435C
:102950000160864800214163416B1F2212049143AC
:1029600042138918416301060868F0229043E03061
:10297000086010BD10B58AB07D4941627D49816211
:102980007D494161002430210C547C49C1627C495D
:1029900001607C4901627C4941607C49C16100F071
:1029A0003EFB7248416B1F22120491434213891867
:1029B00041636D480168C212914301606846045545
:1029C000641CE4B2282CFAD301467148282200681E
:1029D00040305CF791FB092000F03BFB00F03FFB2F
:1029E000002802D0012000F034FB00F019FBFEF7B4
:1029F00033FBFEF760FB00F0D5F800F058F8FFF766
:102A00009FFF00F00BFB00F083F800F01CFB0AB006
:102A100010BD10B55548416B1F221204914342135B
:102A20008918416300060168C908C90001600520D2
:102A30000007018908221143018100F010FB0028E2
:102A400002D0012000F005FB00F0EAFAFEF704FBDB
:102A5000FEF731FB00F0A6F800F029F8FFF770FF51
:102A600000F035F800F0EFFA10BD10B50446702202
:102A7000484949485CF740FB47484830011B4648F5
:102A80001038018344495C31091B418310BD10B5E6
:102A900000F0C6FAFEF70FFB00F084F800F007F82C
:102AA00000F0BCFA00F023F800F0CDFA10BD2F4B77
:102AB00010B540331868394C0102090EC2B20A3110
:102AC00009040A32204011430143196010BD344A01
:102AD000118B3148103083691B0C1B040B4383613D
:102AE000518BC269120C12040A43C26170472C4A0E
:102AF000203A118B28481030C3681B0C1B040B4371
:102B0000C360518B0269120C12040A4302617047C0
:102B100010B5FFF7ECFFFFF7DAFF21482038018AF4
:102B20001D4810308268120C12040A4382601C4A4D
:102B300040329188036A1B0C1B040B430362D1884B
:102B4000426A120C12040A43426215494A88836A97
:102B50001B0C1B04134383628988C26A120C120483
:102B60000A43C26210BD0000000200404000004065
:102B7000D528FC07D928FC070529FC072929FC07CB
:102B8000DB28FC070129FC070329FC07DD28FC07DB
:102B90004CB9FC070874FC0770A0FC0700FF00FF9D
:102BA00020300040F0B5FE48406B7F210902884389
:102BB0000B2109024018FA494863086AF94980B2B2
:102BC0004018F7490862886BF74901220840520310
:102BD000F34980188863F2484030016903231B02DF
:102BE00019430161818B102421438183EC482030FB
:102BF0008188012421438180ED49EC480860ED4C37
:102C000020883F21090188432F2109014018208095
:102C1000E84820388169E84D490D49054919816125
:102C2000C169E64D294009256D024919C161416814
:102C3000E34D2940E34D491941608168E24D294047
:102C4000E24D49198160C168E14D2940E14D4919C2
:102C5000C1600169E04D2940E04D49190161E04939
:102C6000C514097809064919C1256D012943DD4DAF
:102C700029600525DC49AD020D816D1D8D81DA4984
:102C800020310D892D0A2D0255350D818D25AD0080
:102C90000D82D64D8D82D64D0D83D44D0E3D8D8344
:102CA000D349D14DC91D40352980D249A181C16B7D
:102CB000D14C2140D14C0919C163FF20D04C6C305C
:102CC0002080CF482030068B1F2149010B258E43E1
:102CD000AD0176190683CA484030868809278E439D
:102CE000BF01F6198680068915278E437F01F619E4
:102CF000068186898E4371198181FF208D30A080E5
:102D0000BF4880300189E024A14319430181818BB0
:102D10004909490119318183B2482030818B5B0117
:102D2000994389188183AF4880300168C908C90078
:102D3000C91C0160AB49B34840314862F0BDA949A4
:102D400008B500208031C8620090401C0090FF2828
:102D5000FBDDAD480078AA49C006820D4031C86845
:102D60001F235B0198431043C86008BDA7488C49E6
:102D70000068403108608A488169890989011C31ED
:102D800081618169C21391438161016B3F22120607
:102D900091430722920689180163016B3F22920139
:102DA00091430F22D20189180163016B89098901BE
:102DB0001E31016370477A48C16949084900C16101
:102DC00070478F4808B54030C1688F4A8905C90EE1
:102DD0001170C1681F2252019143C16081490120D5
:102DE000887180488030C16A03221143C16200208B
:102DF0000090401C0090FF28FBDD08BD08B5794914
:102E00000220887100200090401C00900B28FBDB02
:102E100008BD634841210177C169032252029143F1
:102E200002158918C16170475D4840300168774AD2
:102E300011600021C94301605948816989098901EC
:102E400081618169C21391438161C1690322520288
:102E500091430315C918C161C16970239943403179
:102E6000C161016B3F231B0699430B235B06C91805
:102E70000163016B3F239B01994389180163016B37
:102E800089098901183101637047F8B5554803274E
:102E90004771434C6068C009C00114306060FFF79F
:102EA000C3FF43202077FFF7A9FFFFF78AFF002524
:102EB000261500950098401C0090B042FADB494965
:102EC00003204871364880308068C705FF0DFFF742
:102ED00036FF00950098401C00901028FADBA0698E
:102EE0004002400AF9050843A061A069484908402A
:102EF000B9010843A061FFF78CFFFFF77FFFFFF7E1
:102F000060FF00950098401C0090B042FADB354904
:102F100003204871224880308068C705FF0DFFF705
:102F20000EFF00950098401C00901028FADBA06965
:102F30004002400AF9050843A061A06934490840ED
:102F4000B9010843A061FFF764FFFFF757FFFFF7E0
:102F500038FF00950098401C0090B042FADB2149F0
:102F6000032048710E4880308068C605A069F60DC0
:102F70004002400AF1050843A061A06924490840C5
:102F8000B1010843A061FFF716FFFFF7EFFEFFF75F
:102F9000D6FE00950098401C00901028FADB39E01E
:102FA0000030004000008888FF00FEFF59055C07E4
:102FB000800000402020004009581A00FEE1FFFF79
:102FC000E0E000000809294900000303696A686C11
:102FD000031FFFFF70600000E0E0E0E00B0A0A085A
:102FE0009888FC070010004020130040340A0000BD
:102FF00051080000070F00002F64E0FE101A0601C0
:103000000012004050015001847AFC07007CFC074C
:103010003F80FFFF134846810120F8BD35E7704728
:1030200008B511480821017100210091009A521C35
:103030000092102AFADB0091491C00911029FBDB59
:103040000321417108BD084802218171002181805E
:103050007047064908707047044800787047034875
:1030600040787047047CFC07001000409888FC07FB
:10307000FFB585B00C46FD205EF7BAF80390002737
:103080006846077008986946060A20885FF7DCF9E9
:1030900005466088002800D000BE002D6AD1FD20C2
:1030A00001F086F9694609781423594342680B1DDB
:1030B000D35C022B21D15158354A098891421CD149
:1030C0000197029720885FF75AF9002800D100BEC7
:1030D00001AB002204A94DF747FF04982146800563
:1030E000C00F5FF737F905062D0E43D1684601780A
:1030F000E28830465FF709FB21E000280BD08069A9
:103100008446002807D06846A2886188A31D0078FD
:103110006546A847054601970297208801A94DF703
:103120009EFC002D26D101980089C00B07D1628832
:10313000A1882088A31D4DF7FCFC051E1AD131463D
:1031400003985EF773F80146A088079A801D83B242
:10315000104859F74FFC0746A288A11D801D5BF758
:10316000CBFF684600787880A088B8803E703846EB
:1031700059F75BFC04230848079A089959F73AFC69
:1031800021880180857059F750FC002009B0F0BDFE
:10319000022900000AFD0000160C0000F8B5002509
:1031A000244CFF272E46002813D1284610302661D4
:1031B000A082E7826660A660E681A681C0B2214651
:1031C000266059F716FE6D1CEDB21834032DECD3B2
:1031D000F8BDE08A5EF792F8002802D041682046E8
:1031E0008847E7826660A660E681207D59F75BFE2E
:1031F0006D1CEDB21834032DEBD3F8BDF1B50D4DB8
:103200000D4F00242E46E88AFD2803D11820604384
:1032100080194760E88A5EF771F8002803D0826859
:10322000284600999047641CE4B21835032CEAD371
:10323000F8BD0000A088FC07D074FC0710B500F0B2
:10324000EDFA00F079FB60F753FA0120FDF76EFA12
:1032500010BD0C21314A10B5414389188978FF29E6
:1032600002D000F0C1F810BD03F022F810BD10B577
:1032700060F726F9002801D003F01AF810BD10B548
:1032800003F016F810BD10B525490A780270401CED
:10329000491C5BF731FF10BD2149498C0180704703
:1032A0000821018010214180002181807D21C18081
:1032B000704770B50C4601780025194B002904D0E1
:1032C000012909D04820207070BD8278011D1A7034
:1032D000581C5BF711FF01E040885884257070BDD1
:1032E00001200870002048808880704770B504462F
:1032F0004079800911D13FF702FB014620700A0A8C
:1033000062700A0CA270090EE170251D3FF7F7FAF2
:103310002870000AC0210843607170BD0089FC0755
:103320000C89FC070021B34A05E0834201D101204A
:103330007047491CC9B20C234B43D35CFF2BF4D11B
:103340000020704770B5AB49AB4C0E460C36AB4D08
:103350000DE052185268002A07D0C2B20C235A431B
:1033600051184968401C60702DE0401C6070607806
:103370000C2242438B5CFF2BEBD10AE08919496890
:10338000002903D0FFF7CEFF002809D02078401C89
:10339000207021780C204143705CFF28EED117E0AB
:1033A00020780C21414389194968401C20700AE0AB
:1033B0004919C968002909D0C1B21C2251434919D1
:1033C000C968401CA0708847002070BD401CA070D8
:1033D000A0781C2141436A5CFF2AE9D10020A0703B
:1033E00060702070012070BDF8B505460024814E44
:1033F0000AE080198168002904D0641CE4B22846E0
:10340000884701E0641CE4B220460C214843315C4B
:10341000FF29EED1774E00240C3609E08F19B968E8
:10342000002903D0FFF77EFF002809D0641CE4B216
:103430000C216143705CFF28F0D100246F4E10E036
:10344000641CB968E4B228468847F1E7801901692D
:10345000002904D0641CE4B22846884701E0641CBB
:10346000E4B220461C214843315CFF29EED1F8BD6F
:1034700010B5614CE068002822D1522304220921B2
:103480005F4859F7B7FA0D21E060017000214170E3
:103490005C4A8280C28007220272817201224272DB
:1034A0000422C27258A2138883815288C2812B22BF
:1034B00011540246103256A30B210B3060F72AF844
:1034C000E06810BD70B54C4E04468500361D70593D
:1034D000002816D121020E23042250480A3159F740
:1034E00089FA09210170002C00D000BE7051102112
:1034F0008180082141800021C1807D22028141819B
:103500008181705970BD70B53B4EB068002829D1DB
:103510003B482C2304220921093859F76BFA03216F
:1035200001700A21B0604170642101840025857614
:103530000446458010210A305BF7F7FD2021E17633
:10354000A583E58336486584C08FFB21FB2800D91D
:1035500008463349E084403132480988814200D826
:1035600008462085B06870BD3EB50025214900950C
:1035700001950C224031684602955BF7BDFD1E485F
:103580000C22183069465BF7B7FD1B4C0B22243424
:1035900022701FA1601C5BF7AFFD164965843031B6
:1035A000042059F726FC0021042059F754FC3EBDA5
:1035B00010B5FFF75DFF59F738FA0F490020C860D2
:1035C0000221042059F747FC10BD10B50446FFF74F
:1035D00079FF59F72AFA084A0020A100121D50501D
:1035E00010BD10B5FFF78FFF59F71FFA02490020F1
:1035F000886010BD1475FC07E888FC07D878FC07C4
:103600000D0D00004C0400000303F5FE0000000057
:10361000444C472D505250485F5632000E0E000069
:10362000F0BBFC074808000010B5104659F728FC0D
:10363000002802D000BE002010BD01230422092171
:10364000724859F7D7F90121017059F7EEF9F2E7FD
:1036500010B50C780E2C13D008DC012C12D0032CE2
:1036600016D00C2C0CD00D2C08D119E00F2C07D043
:10367000112C05D0122C03D0132C01D002F061FEC6
:10368000002010BD4878002805D1FFF7AAFFF7E712
:103690004878002801D000BEF2E7FFF7E8FDEFE729
:1036A000487802F036FEEBE7F8B51C4610460E46A9
:1036B00059F7E6FB022802D000BE0020F8BD240A1C
:1036C00000D000BE0C202746474351483D18AC703F
:1036D000FF2C15D00121E9700321042059F7BBFB11
:1036E0004B483188C153707A28713146681D0622D3
:1036F0000A315BF701FD0122002120465FF7F4FE4D
:103700003146204602F0DEFDD7E770B50D784C78E3
:10371000092D04D0002C00D000BE02F012FE0020C3
:1037200070BD70B51D4610460C4659F7A9FB2A0A14
:10373000032802D000BE002070BD0C204243344854
:10374000FF21101881700021C170204602F0E5FDB4
:10375000F1E7F0B5087800252E4C89B01F461646D3
:10376000002804D0012817D0022827D129E0684674
:10377000FFF789FD684603783246394620460A330A
:1037800059F738F90446057068460278411C628092
:10379000201D5BF7B1FC2BE069460D806846FFF702
:1037A0007BFD0A2332463946204659F723F9012189
:1037B000017069460988418059F737F9002009B03E
:1037C000F0BD0A233946204659F714F904466846E5
:1037D000FFF766FD0220207068460088608068461A
:1037E0004088A08068468088E0806846C088208144
:1037F0002046E1E7FEB51C46089B0D26064D6F46A8
:1038000068C7134622465FF773FDFEBD020D000038
:103810000089FC070B0E00006075FC07704710B5AF
:103820000A23042209210B4859F7E4F804461B2017
:10383000207014205FF730FF607014206080042037
:10384000A0800020E080FF2174312181204659F7BB
:10385000ECF810BD1B0D0000F8B50E4609781846AF
:10386000002425460B005BF79BFC0906091209158D
:10387000150C180F1B000B241AA512E007241CA519
:103880000FE008241CA50CE007241EA509E00A246B
:103890001EA506E00D2420A503E0062422A500E0D5
:1038A00000BEA31C0146224859F7A4F80746307809
:1038B00038707C70002C04D022462946B81C5BF777
:1038C0001BFC384659F7B1F80020F8BDFEB51C4680
:1038D000089B0126174D6F4668C7134622465FF7BF
:1038E00007FDFEBD4469616C6F672053656D69001B
:1038F0004441313435333100123456FFFE9ABCDE78
:103900000000000001D2008005000100312E302EA1
:10391000302E302D4C450000765F362E302E31365D
:103920002E31313434000000FFEEDDCCBBAA0000A4
:1039300003140000C875FC07F748002101744161B9
:103940008161C16001770246D16214210170704724
:10395000F148002101744161C160704710B509232D
:1039600004221946ED4859F745F804461B202070FB
:10397000FC205FF791FE6070FC2060800420A08036
:103980000021E1802172204659F74FF810BD10B593
:103990000446FC203EF717FF014604231A46E04880
:1039A00059F728F8847059F740F810BD10B5DA4C73
:1039B0002078032801D1FEF773F81420207000202E
:1039C00002F0F2FC10BDF7B50024070BE4433F03FF
:1039D0000D0B82B0080500D06D1C002D01D0002613
:1039E00031E0012500260498002822D02021384605
:1039F000FEF7F3F9040028D1009015E00520000738
:103A00000089000610D501208007006B00040BD44C
:103A10000098C449401C0090884203D90020C0434C
:103A200005B0F0BD59F7E9FCFEF716F9C007E5D17E
:103A300005E020213846FEF7BAF9040005D101203F
:103A400000033F18761CAE42CDD32046E8E7F8B518
:103A50000C4606461546200B49190003A04203D127
:103A600001222946204608E00A0B230B9A4206D081
:103A7000012212038018091A0122FFF7A4FF6B46E6
:103A80002A4621463046FEF7EBF9F8BD08B5FEF7A9
:103A900008F90020FEF703F96846FEF735F908BD7E
:103AA000F8B504469C48A04E017A00270906090F84
:103AB000A171027AFF4313071B0FE37102891204FD
:103AC000120F227002891205120F627082681202B0
:103AD000120FA27082681203120FE2708268120F36
:103AE000227180680001000F6071302041438A1903
:103AF00099005058002801D0384600E0012050506D
:103B0000A579E279C1175BF73BFB2A015BF738FB2C
:103B1000864A136855681843294310605160A0789D
:103B2000302148438219E07881005058002801D0A4
:103B3000384600E001205050A578E278C1175BF7C5
:103B40001FFB2A015BF71CFB784D2A686B6810434A
:103B500019432860696020793021484382196079CF
:103B600081005058002801D0384600E00120505014
:103B700026796279C1175BF703FB32015BF700FB23
:103B80002A686B68104319432860696020783021E7
:103B9000484365494018617889004258002A00D19D
:103BA00001274750384626786278F9175BF7E8FA1C
:103BB00032015BF7E5FA2B686A6818431143286005
:103BC00069600120009003263602617820781D2369
:103BD0003246FDF718FC00250095E179A0791C23F9
:103BE0003246FDF710FC0095E178A0781B233246A1
:103BF000FDF709FC0095617920791A230022FDF771
:103C000002FCF8BD3EB5AA216A46434C11722178E8
:103C1000062013290FD11046FFF742FF6846FFF731
:103C200035FF6168012202A8891CFFF710FF40B22E
:103C3000002800D10220C0B23EBD10B5012002F024
:103C4000B3FB354C2078C00601D5102000E00820D9
:103C5000FFF79DFE002020746061A061E060207786
:103C600010BD70B50D46010E2B4C0A4614290FD21B
:103C7000227080B26060002A01D0012A01D12C4854
:103C80006060122A01D0132A02D102280AD8607477
:103C9000132917D008DC102917D0112915D01229A3
:103CA00008D10FE0112017E0FD2926D0FE2916D0FB
:103CB000FF290CD00820FFF76AFE14202070002096
:103CC000286070BDFFF7B9FF70BD082004E0FFF762
:103CD0006DFEFFF73DFE0320FFF759FE70BD207F0C
:103CE000002801D0042001E0FFF78CFFFFF74FFE12
:103CF000FFF75CFEFFF72CFE70BD0E488078FF28B2
:103D000006D00549012220310A725FF739FC70BDE7
:103D100009483EF72BFD70BD4889FC071B0D0000CC
:103D200005FC000080841E00D887FC07D087FC07B4
:103D3000708BFC070089FC071111111110B50446A6
:103D4000FC203EF740FD014604231A46C04858F7C0
:103D500051FE046058F769FE10BD0021FF2802D013
:103D6000401CC0B2704708467047FF2802D0FF29A8
:103D700005D006E0FF2908D0002906D001E0002880
:103D800001D0884201D9022070470120704738B520
:103D9000B04B044600201B78C043132B03D16B4665
:103DA0002046FEF790F838BDF7B596B00026189873
:103DB0000C463546402805D32078702802D160781B
:103DC000512802D0122019B0F0BD6768A1493846C9
:103DD0004030086205210C2289036846FFF7D7FFAF
:103DE000002847DB68460078702803D16846407891
:103DF000522801D01420E6E7019811900298129001
:103E0000002F04D01199401A4038B84201D2132033
:103E1000D9E7684640221090FFF7B9FF002829DB58
:103E20006846C078149068468178274603A80C3706
:103E30001590AA2907D168460078702803D16846F2
:103E40004078512803D00126002014900BE0102266
:103E5000384615995BF774F9002804D1E069079991
:103E6000884200D10226402212991098FFF78FFF56
:103E7000002801DA1620A6E76846C0781390684645
:103E80008078AA2807D168460078702803D1684650
:103E90004078512803D00125002013900BE0102218
:103EA000384615995BF74CF9002804D1E069079969
:103EB000884200D102251698002801D0022807D98F
:103EC000012E10D0012D1BD013991498FFF74DFF30
:103ED0000746FF22402168465BF720F9022F15D0E4
:103EE000022E24D004E0FF22402168465BF716F939
:103EF000584911984860002D1BD0022D19D00EE0B2
:103F0000FF22402168465BF709F901E0022D0ED03F
:103F1000504912984860002E07D0022E05D0012685
:103F20004C4D2878132809D03BE0149802E0152066
:103F300049E71398FFF711FF0646F1E70122114602
:103F40006868FFF740FD00282BD16846C67060689E
:103F50000190A068029020460C300EC8A06906901F
:103F600003A80EC0E0690790217868460170617867
:103F700041702020015D08A801702878132810D115
:103F8000402269681098FFF762FD002809DB696824
:103F9000189A204640304031403AFFF758FD00283B
:103FA00001DA06200FE700200DE77CB5294C022638
:103FB000002022462C32616904E0237F155C6B40AF
:103FC0002377401C8142F8D82078122801D013288A
:103FD00001D0082638E06846FFF762FD6846FFF723
:103FE00055FD6269002A02D0A069002818D0A16995
:103FF000206A8A18431C9A4220D8824201D9401A6A
:104000006061606825464118124862692C30FFF7EC
:104010001EFD002812DB6969A8694018A8610EE03E
:104020000C49607C2C31FFF7BFFE002801D086B21E
:1040300005E06269A1698918A16100E006260020F7
:104040006061A069FFF77AFEF0B2FFF7A0FC7CBDCB
:1040500004FC00004889FC0770B53F4C0D462078F1
:10406000142827D2A978002922D0E16800291AD083
:10407000C0061FD5EA786069012381185B02994266
:1040800013D836494018291D5BF736F8E97860697E
:1040900040186061E168814201D1FFF786FFE16865
:1040A0006069884204D9052000E00720FFF76FFC13
:1040B000002070BD0820F9E708B50020009088783E
:1040C000002806D048686946FFF7CBFD0098FFF747
:1040D00035FE002008BD10B5887800280ED01E4897
:1040E00049688160007802280AD0032808D0122885
:1040F00004D0132802D00820FFF749FC002010BD8F
:104100000020FFF71BFEF9E710B58878002813D0D0
:10411000898800290DD010480278142A0CD2D206C2
:104120000CD501225202914205D90720FFF72FFC3E
:1041300002E00520FAE7C160002010BD0820F5E785
:10414000FEB51C46089B0426054D6F4668C71346FE
:1041500022465FF7CDF8FEBD4889FC077489FC074D
:10416000D075FC07052000070089000608D501204E
:104170008007006B000403D403480078C00701D017
:10418000002070470120704754BAFC0770B51049F1
:10419000049C4118052901D3012070BD00F00FF8DF
:1041A0000025002807DB0B4A81005058002803D067
:1041B0005550804700E000BE2570002070BD0449C6
:1041C0004018052801D240B270470020C043704714
:1041D000F2FBFFFF788BFC077047704770B50D4608
:1041E0000446FFF7BFFF002806D06B482A4604218B
:1041F000201858F73EFF70BDFCF7E7FA6648042226
:1042000008231146801E58F7F5FB4560047058F7E7
:104210000CFC70BDF8B5614C069D06190024002EFB
:1042200026D0012E0CD05F4F5D4B3A46283A022E25
:104230000AD05A49C91E41180A2927D30120F8BDBE
:1042400000F080F8287039E00878461E092E0DD855
:104250008000001F105898422FD1B0003B581350D7
:104260004A6808781146FFF7B9FF26E000BE24E04F
:104270004A68002A02D04C48824200D900BE087821
:1042800045494018042158F7F4FE16E04349891EB9
:104290004018C0B2411E0929E8D88600B218803AF9
:1042A000D16F002909D0994207D0404B994204D0E0
:1042B000D467F219803AD46788472C700020F8BD83
:1042C0000A46010010B5384801D0814200D900BE2D
:1042D0000020344B283B84001C59002C04D0401C87
:1042E0000A28F8DB002010BD84001A51401C040687
:1042F000240EF7D02046FFF771FF204610BD70B5A1
:104300000446401E09281BD82648A10028380D184D
:10431000803DE86F002813D0244EB04210D01E48D4
:104320000421201858F7EFFE1B48042208231146E9
:10433000401EEE6758F75EFB047058F776FB70BDC1
:1043400000BE70BD10B508780C46411E09291FD863
:1043500082001448121F28388258144B9A4205D103
:104360000022890042502830425012E08900405813
:104370000B4988420DD1042208231146064858F7FC
:1043800039FB217801706168416058F74EFB00E00D
:1043900000BE002010BD000003040000FFFBFFFF73
:1043A000DB41FC07B48BFC07FCFF3F00D941FC0755
:1043B0000021154A06E0834203D11C20414388189E
:1043C0007047491C1C234B43D35CFF2BF3D10020C7
:1043D000704710B51823042209210C4858F70AFB2E
:1043E00004461B202070FD205FF756F96070FD2009
:1043F00060800420A0800021E180E1602161A18231
:10440000204658F712FB10BDD878FC071B0D0000A2
:104410003EB51D46069B002400931346019402946A
:104420002A465EF765FF3EBD10B5724A8924A40096
:104430001160002810D0101D0068002802D010382C
:1044400058F71DFB6B482146001D5AF76EFE0021F0
:104450000B2058F700FD10BD66482146001D5AF795
:1044600064FE65490B2058F7C4FCF0E7FEB505462D
:10447000012804D0002D02D00220C043FEBD5D4CB7
:10448000241D204610300190112040012618FF34D1
:10449000FF34023430780090A1692069E268411845
:1044A00060682B468018019A00F0F5F8070002D1E9
:1044B000E0681030E0603078000909D0002F10D19A
:1044C000E168A06881420CD2A0691030A061E1E7E8
:1044D000112300220B21494858F78CFA077058F72E
:1044E000A4FA3846FEBDF8B5424C0646241D27689E
:1044F000089D0A98002F02D00120C043F8BD102962
:1045000002D00320C043F8BDE660A1603C498B6047
:104510004A60069A0A61079A4A610022CA608A6163
:10452000A571099ACA6120310870000913D10B22C4
:1045300021231146100258F75DFA0646002D01D0DE
:10454000192000E01A20307001210B2058F783FC5D
:104550000B202660A080274AA37914328021E068CE
:1045600000F052F82846FFF781FFF8BDF8B5214D5D
:1045700000272D1DEC1DFF34FA341646002A0BD1FE
:10458000E168A068814207D2A0691030A061A879D3
:10459000FFF76CFF00280FD000210B2058F75BFCC1
:1045A0002868002803D0103858F769FA2F60E169AD
:1045B000002901D030468847F8BD30B50D4A85B096
:1045C000121D12681278192A11D00022094C1025E8
:1045D000246802920B4A0023009204930A46019534
:1045E00003942B462946FFF77EFF05B030BD01221C
:1045F000ECE70000DC8BFC078076FC07010B000079
:10460000E08DFC073E7CFC0710B51446012B02D060
:10461000002B2ED03BE0141D0278C17812065140C9
:104620004278837812041B025A405140216002797B
:10463000C179120651404279837912041B025A4013
:1046400051406160027AC17A12065140427A837AFF
:1046500012041B025A405140A160027BC17B12062A
:104660005140427B807B1204000242405140E16095
:104670000DE080290DD0CA1FF93A05D1012301466A
:104680003B4A204600F0C6F8204600F048F90020DA
:1046900010BD0023F3E7FFB585B00E9E0446174614
:1046A0000D46300701D058F7A8FE089801282DD0F4
:1046B00000206E462118235CCA781B065A404B78AE
:1046C00089781B0409024B4081085A408900001D6B
:1046D000C0B272501028EDD33146384600F05BF975
:1046E0000020810889007258120E2A547258130C47
:1046F0002A185370735A001D1B0A9370715CC0B264
:10470000D1701028EDD3002009B0F0BD1948007F0A
:10471000002802D00020C043F6E7174839694160FD
:10472000F9688160B968C16079680161134F2146F9
:104730003A680F310F23F0320C781470491E521C66
:104740005B1EF9D2F021044641610120206003E0A4
:10475000300701D058F751FE20680128F8D0396899
:104760002846FF31102201315AF7C6FCCBE7000082
:104770002E7CFC07F0BBFC07C00000404CB9FC07D6
:1047800070B51E4610460C46002558F779FB0028E8
:1047900002D00225284670BD2078192807D01A2893
:1047A00005D06A2219213046FFF7E0FEF2E71848EB
:1047B0002146046086800125601C1131FFF7FDFE53
:1047C00001210B2058F747FBE4E710B510460C46D3
:1047D00058F756FB01280AD10D480168002900D17D
:1047E00000BE0978192904D01A290CD000BE002077
:1047F00010BD21780022002900D0E22280881921F2
:10480000FFF7B4FEF3E7002280881A21F8E70000E2
:10481000E08BFC07FFB583B0002B0BD0012B7CD1C4
:104820000E200824039A108003984480039E0020E1
:10483000361D1EE00A200424F4E74A780B781202A1
:104840001A438B7852BA12041B021A43CB781A43CC
:104850008300F2504A790D7912022A438D7952BAB7
:1048600012042D022A43CD799B192A43801C08315A
:104870005A60A042E1DBA5480090039827460088D3
:104880008000001D02903EE0B80001908019803841
:10489000C56F214638465AF7CBFB002917D19C48F3
:1048A000EAB2825C13022A04120E825C12041A43DA
:1048B0002B021B0EC35C1B0613432A0E805C009A5E
:1048C00018431278150645400098401C0090082CAB
:1048D00012D1042910D18E482A04120EE9B2825C4A
:1048E000415C12020A432902090E415C090411438A
:1048F0002A0E805C05060D43381B80003058019954
:10490000684070507F1C02988742BDDB03981022DC
:10491000FF30E53005995AF7EFFB07B0F0BDF0B571
:10492000054600881435800032E02C68794B7A4EB9
:10493000610031402246E609DF091A403E40921BE1
:10494000764EFF43324051400E464A001E403A40E8
:10495000F709F61B714F3E40724017461F406E4BE1
:1049600056001E40FB09FB1A6C4F3B405E400B4655
:1049700074405340734061401826F14159406240F1
:104980001023DA414A400821CC41544010C5401E52
:104990000428CADCF0BDF0B50E4695B00188079139
:1049A00009010F18042014378100891980393F1F2D
:1049B000CA6F3B685A40CA67401EF5D197E004248D
:1049C000481E1090E01C8007000F3058010E54481C
:1049D000415C0291A11C8907090F71580902090E57
:1049E000415C0591611C8907090F715A0904090E80
:1049F000415C0191A107090F715C455C1099049815
:104A0000884253DA0299059841400846039100F024
:104A100075F8069005990198414008460F9100F0FD
:104A20006DF805900198684000F068F808900299C8
:104A30002846484000F062F8069A059913904A40CB
:104A4000104600F05BF80A9005990898484000F07D
:104A500055F8014609900A98484000F04FF80F9920
:104A60000A9A69405140069A414051408C46029B47
:104A700001990A9A4B4009996B404B400599434074
:104A80004B40039969404A40089942404A40019D81
:104A900003996940099D694041400D46139861465C
:104AA0004540080619040843110206E002980599DA
:104AB000000609040843019909020843A2000BA952
:104AC000511828438039C867641E00D07AE7042053
:104AD0000BAA81008B18803B3F1FDB6F3C68891954
:104AE00063408039CB67401EF3D10498401C07997E
:104AF0000490884200DA62E715B0F0BD010640007C
:104B0000002901DA1B214840C0B27047B878FC0781
:104B1000B876FC0780808080FEFEFEFE1B1B1B1B00
:104B2000B877FC0770B5954800228169D243002907
:104B300001D0114600E00121CB178C0E9B012343CD
:104B40008C0181618E490D684E682C4333430C60A3
:104B50004B60436A002B01D0144600E00124E317A8
:104B6000E50D5B022B4344620D6864024E682C43E2
:104B700033430C604B60036A002B01D0144600E005
:104B80000124E317250E1B022B4304620D68240247
:104B90004E682C4333430C604B604369002B01D0BB
:104BA000144600E00124E317E50E5B012B4344614A
:104BB0000D6864014E682C4333430C604B60C36A3C
:104BC000002B01D0144600E00124E317650DDB0241
:104BD0002B43C4620D68E4024E682C4333430C60DF
:104BE0004B604368002B01D0144600E00124446070
:104BF000E31724190D685B414E682C4333430C6066
:104C00004B600369002B01D0144600E00124E31738
:104C1000250F1B012B4304610D6824014E682C43B2
:104C200033430C604B600368002B01D0134600E057
:104C3000012303600D68DC174E682B4334430B607F
:104C40004C60C368002B01D0144600E00124E31738
:104C5000650FDB002B43C4600D68E4004E682C43F5
:104C600033430C604B60C369002B00D10122C26149
:104C7000D017530EC00118430C68D2014B68224371
:104C800018430A60486070BDF8B50120032636025B
:104C9000014600901D2332460020FCF7B4FB00249F
:104CA0001C233246042120460094FCF7ACFB002173
:104CB0001B23324608460094FCF7A5FB00221A236A
:104CC000032110460094FCF79EFB2E480023007839
:104CD0000090324609211846FCF795FB2A4D002327
:104CE00028780090324608211846FCF78CFB2748AC
:104CF000002300780090324606211846FCF783FB1B
:104D00002878FF250023013500902A460521184602
:104D1000FCF779FB00232A460B2118460094FCF788
:104D200072FB00220F23072110460094FCF76BFB57
:104D3000F8BD70B5164C012525801B20FCF788FABC
:104D400002F01AF913491448FDF759FA11480838C6
:104D5000FCF7E3FE0F481830FCF79DFF0D481830B4
:104D6000FCF799FF0B480838FCF7D7FEFFF78CFFDC
:104D7000A089A8432843A08170BD0000D887FC0704
:104D8000D087FC07068EFC07078EFC07088EFC0701
:104D900000030050F479FC070011005010B5FD49E4
:104DA00001204870FC490870FC496420FFF788FA2C
:104DB000FB49488110BD10B5FA48FCF743FC20219F
:104DC0000A2301220846FCF718FC10BD10B5FD208F
:104DD0003DF7F9FC014638230422F34857F70AFE51
:104DE0000446052060803220A080012060703222BD
:104DF000EE49A01D5AF780F9204657F716FEFFF737
:104E0000DAFF10BDF0B5E34F87B0B8880125401C2C
:104E100080B2B880322800D3BD80B8886946020AC3
:104E20000A75E34C4875258006AB0222E14905A8C6
:104E3000FDF716F8002626800B213046FCF70AFB0A
:104E400000287DD0BE70DC49D84C48782070D1480D
:104E5000D74D0A30027862704078A0703878E070E0
:104E600078782071B8786071CA480E300278A271E3
:104E70004078E0713889020A22726072C5481C309D
:104E80000278A2724278E27282782273C2786273E8
:104E90000079A073BF4810300278E2734278227420
:104EA00082786274C078A0748878E074267566751C
:104EB000A675E67526766676A676E6762677667712
:104EC000A677E67701202880B88814214843B9499D
:104ED00006AB1231411814222046FCF7C1FF2E8088
:104EE000AC4821784930017061784170A1788170B7
:104EF000E178C1702179017161794171A179817184
:104F0000E179C171217A0172617A4172A17A81726B
:104F1000E17AC172217B0173617B4173A17B817353
:104F2000E17BC173217C10300170617C4170A17CF8
:104F30008170E17CC170217D0171617D417100E072
:104F40008EE0A17D8171E17DC171217E0172617E62
:104F50004172A17E8172E17EC172217F0173617F06
:104F60004173A17F8173E17FC1738A4A01201021BF
:104F700049320290914D104603960B4604960095D7
:104F800001912038FFF7AFFA58F737FA58F735FA9A
:104F900058F733FA58F731FA58F72FFA58F72DFA2D
:104FA0002878207068786070A878A070E878E07041
:104FB0002879207168796071A879A071E879E07129
:104FC000287A2072687A6072A87AA072E87AE07211
:104FD000287B2073687B6073A87BA073E87BE073F9
:104FE0006C4A0120102159320290104603960B465C
:104FF0000496009501913038FFF775FA58F7FDF9DE
:1050000058F7FBF958F7F9F958F7F7F958F7F5F9A0
:1050100058F7F3F92878207468786074A878A07439
:10502000E878E0742879207568796075A879A075AA
:10503000E879E075287A2076687A6076A87AA07692
:10504000E87AE076287B2077687B6077A87BA0777A
:10505000E87BE077FFF7BAFE7E70BE7007B0F0BD68
:10506000BD70F0E610B506210020FCF796F94C4C17
:105070000020A070207060700921FCF78EF90821D3
:105080000020FCF78AF945496420FFF719F960818F
:1050900010BD4B4A5188C905490F062901D906217F
:1050A00002E05188C905490F5288E1239207920F07
:1050B0009B00521C5A4350430A31C84080B270478B
:1050C0001CB5404903C9009001916846FCF777FB85
:1050D0000120FCF7A7FBFCF793FBFCF797FBFCF721
:1050E00034FC0446FCF786FB20461CBD10B50621A7
:1050F0000020FCF76DF9FFF7E3FFFFF7CAFF254932
:10510000020A0E310A704870254C0120A07000215F
:105110002170607009210020FCF73FF90821002070
:10512000FCF756F91B482849C088FFF7C9F82081C9
:1051300010BD10B506210020FCF72FF9184C0020F7
:10514000A070207060700921FCF727F90821002069
:10515000FCF723F90F481D490089FFF7B1F8A0803B
:1051600010BD10B506210020FCF732F90C4C0120CF
:10517000A0702070002060700921FCF729F9082137
:105180000020FCF70AF903481149C088FFF798F896
:10519000E08010BD4E7CFC07148EFC07054EFC071A
:1051A000068EFC079D4DFC0706FD0000ACB4FC0715
:1051B0000003005010F00100857AFC073E7CFC07DC
:1051C00000150050187AFC076550FC07ED50FC07ED
:1051D0003351FC07F0B50D46FE4999B00120088017
:1051E00017AB2422FC49FD48FCF76DFEF94800246A
:1051F0000480FA48FA4902780A7042784A70827844
:105200008A70C278CA7002790A7142794A718279C9
:105210008A71C279CA71F24A017A0D3A1170417AE3
:105220005170817A9170C17AD170ED49027B093950
:105230000A70427B4A70827B8A70C27BCA700A46BF
:10524000017C437C0902183A19431181817CC37C9B
:1052500009021943D180E249027D08310A70427D7A
:105260004A70827D8A70C27DCA70027E0A71427E57
:105270004A71827E8A71C27ECA71027F0A72427F3F
:105280004A72827F8A72C07FC872D4482030027806
:105290000A7342784A7382788A73C078C87334215B
:1052A00005A859F742FFAA88A91D05A859F724FFA8
:1052B000CB4F68464837007D38706846407D78702F
:1052C0006846807DB8706846C07DF8706846007E8C
:1052D00038716846407E78716846807EB87168464D
:1052E000C07EF8716846007F38726846407F7872E9
:1052F0006846807FB8726846C07FF87208A8007858
:10530000387308A84078787308A88078B87308A81C
:10531000C078F87308A83E4600791036307008A8A7
:105320004079707008A88079B07008A8C079F070D2
:1053300008A8007A307108A8407A707108A8807AAD
:10534000B07108A8C07AF07108A8007B307208A874
:10535000407B707208A8807BB07208A8C07BF07296
:1053600008A8007C307308A8407C707308A8807C73
:10537000B07308A8C07CF07310229A499A4859F774
:10538000BBFE58F73AF800210846FFF74DF8102009
:105390003546403D0346321A01460190029403947B
:1053A00000950494281AFFF79EF858F726F858F746
:1053B00024F858F722F858F720F858F71EF858F74D
:1053C0001CF82878387068787870A878B870E87811
:1053D000F8702879387168797871A879B871E879A6
:1053E000F871287A3872687A7872A87AB872E87A8E
:1053F000F872287B3873687B7873A87BB873E87B76
:10540000F87310200346014601900294039432463B
:1054100000950494281AFFF766F857F7EEFF57F740
:10542000ECFF57F7EAFF57F7E8FF57F7E6FF57F7A4
:10543000E4FF2878307068787070AA78B270E878E5
:10544000F07084462879307100906879707104900A
:10545000A979B171EB79F371287A30726F7A77722A
:10546000AF7AB772EF7AF7722F7B37736F7B7773F0
:10547000AF7BB773ED7BF5735C4D2D789D427DD18D
:1054800033465A4E103B0A3E1D787778BD42F6D11E
:10549000B578A842F3D118465D785F3805709D78DD
:1054A00045701D461879593D28705879687098796B
:1054B000A870D879E87018464D380270624642707C
:1054C000009A8270049AC2700171187AB179884288
:1054D0007ED143485A7A017891427AD141789A7ABA
:1054E0009142FAD18178DA7A9142F6D1C078197B6B
:1054F0008842F2D13046D978407981427AD1354E0E
:1055000001273780344904AB04220831281DFCF7F9
:10551000DAFC3480281D01782A7891426BD04178DA
:105520006A789142FAD08178AA789142F6D0C07810
:10553000E9788842F2D03E46264F3E8026492846EA
:1055400002AB04220C310830FCF7BDFC3C8028463D
:10555000083001782A7891427CD041786A7891426B
:1055600078D08178AA78914274D0C078E97888425E
:1055700070D0284669304078002800E06FE048D0BD
:105580001A490A39C979884267D10B210020FBF7F3
:1055900061FF002816485BD084703D463E800E496E
:1055A00001AB022210316846FCF78DFC6A46117887
:1055B00050780F4E090201433181074901AB0222A5
:1055C00012316846FCF77FFC6A465178107813E088
:1055D000FEE3FEE30003005012F00100ACB4FC0750
:1055E0006F7CFC072E7CFC07D48DFC078F7AFC07B0
:1055F0004E7CFC07EEE3EEE300020843F0802C80D3
:10560000A1203070FE490520FEF75AFEFD49888032
:1056100023E0FD4D0B21AC700020FBF71BFF0028A1
:1056200012D0AC703E8012AB0222F8496846FCF7FB
:105630004AFC6846417800780002084328813C8093
:10564000A0202870DEE705E0AE70F520287004E0A9
:105650008670A2E7F420EC490870FFF7D3FBEC4812
:105660004178E9487930C07881427DD1E64FE849F8
:1056700069370A393878CA78904275D1384610307F
:10568000027909798A426FD101467A786F390A70B6
:10569000BA784A700546583D2978FA7891427DD10A
:1056A00069783A79914279D1A9787A79914275D11C
:1056B000E978BA79914271D12979FA7991426DD11B
:1056C00069793A7A914269D1A9797A7A914265D118
:1056D000E979BA7A91427DD1F97A2970397B69707A
:1056E000797BA970B97BE970F97B297100786871C1
:1056F000284658304078A871284658308078E8719C
:10570000C44E01203080C14912AB0822103928460E
:10571000FCF7A6FB3480C04E387830702846173826
:1057200000787070B878B0702878F0706878307150
:10573000A8787071E878B0712879F0716879307262
:10574000A8797072E879B072284658300079F07202
:1057500034737473B473F47301201021AF4D039448
:105760000B463246009500E036E00290384604943D
:1057700001914038FEF7B7FE57F73FFE57F73DFE61
:1057800057F73BFE57F739FE57F737FE57F735FE09
:105790002878307068787070A87800E01AE0B070EF
:1057A000E878F0702879307168797071A879B071F3
:1057B000E879F071287A3072687A7072A87AB072DB
:1057C000E87AF072287B3073687B7073A87BB073C3
:1057D000E87BF073FFF7FAFA8D4881788A486930E0
:1057E000407B81427ED18848894969300A390278F4
:1057F000CB789A4276D1827B09798A4272D1064669
:1058000041785F3E317081787170014648390A787D
:10581000C3789A4267D14A7803799A4263D18A78E9
:1058200043799A425FD1CA7883799A425BD10A79E7
:10583000C3799A4257D14A79037A9A4253D18A79E5
:10584000437A9A427FD1C979827A91427BD131469B
:10585000C07A5F31097B00026B4A08431081020A5B
:1058600010A90A726B4D487201272F8013AB0222D8
:10587000664912A8FCF7F4FA2C8030465F30664D7A
:1058800000782870317869707178A97010A9097A48
:10589000E97010A9497A297131465F31897B6971B4
:1058A000A87130460A300278EA7142782A7282780A
:1058B0006A72C078A87230460E300278EA72427876
:1058C0002A7382786A73C078A873E9731020534EE4
:1058D00003460146019003942A46029700960494D9
:1058E000494801E031E02EE02930FEF7FCFD57F792
:1058F00084FD57F782FD57F780FD57F77EFD57F778
:105900007CFD57F77AFD3078287070786870B07831
:10591000A870F078E8703079287170796871B07982
:10592000A871F079E871307A2872707A6872B07A6A
:10593000A872F07AE872307B2873707B6873B07B52
:10594000A873F07BE873FFF741FA3148C1782E481D
:105950007930C07881427DD12B4D2D4869350A3888
:105960002978C278914275D1294610310A79007997
:1059700082426FD108466A786F380270AA78427006
:1059800017300278EB789A427ED142782B799A428E
:105990007AD182786B799A4276D1C278AB799A4281
:1059A00072D10279EB799A426ED142792B7A9A427E
:1059B0006AD182796B7A9A4266D1C079AA7A90428A
:1059C00062D108466538EA7A02702A7B42706A7BA7
:1059D0008270AA7BC2700E46E87B613E307008463A
:1059E0000078707008464078B07008468078F07093
:1059F000084F012038800549042212AB08390FE016
:105A00006351FC07068EFC074E7CFC0722F0010068
:105A10008F7AFC0700030050ACB4FC073E7CFC0707
:105A2000301FFCF71DFA3C800120388013AB0422A4
:105A3000FE493046FCF714FA3C802878FC4D28706B
:105A400030460E38017869704078A870301F0078B1
:105A5000E87000E055E0301F40782871301F8078F2
:105A60006871301FC078A8713078E871707828723A
:105A7000B0786872F078A872304661300079E872C8
:105A80002C736C73AC7300E039E0EC7301201021CF
:105A9000E84E029003940B462A4600960494019126
:105AA000E548FEF720FD57F7A8FC57F7A6FC57F787
:105AB000A4FC57F7A2FC57F7A0FC57F79EFC3078E0
:105AC000287070786870B078A870F078E8703079D5
:105AD000287170796871B079A871F079E871307ABD
:105AE0002872707A6872B07AA872F07AE872307BA5
:105AF0002873707B6873B07BA873F07BE873FFF743
:105B000065F9CE480179CC484030407B81427DD157
:105B1000C948CA4940300A390278CB789A4275D1CF
:105B2000827B09798A4271D1064641785F3E3170A5
:105B300081787170014648390A78C3789A4266D1F3
